{
  "contractName": "BurnableToken",
  "abi": [
    {
      "constant": false,
      "inputs": [
        {
          "name": "_spender",
          "type": "address"
        },
        {
          "name": "_value",
          "type": "uint256"
        }
      ],
      "name": "approve",
      "outputs": [
        {
          "name": "",
          "type": "bool"
        }
      ],
      "payable": false,
      "type": "function"
    },
    {
      "constant": true,
      "inputs": [],
      "name": "totalSupply",
      "outputs": [
        {
          "name": "",
          "type": "uint256"
        }
      ],
      "payable": false,
      "type": "function"
    },
    {
      "constant": false,
      "inputs": [
        {
          "name": "_from",
          "type": "address"
        },
        {
          "name": "_to",
          "type": "address"
        },
        {
          "name": "_value",
          "type": "uint256"
        }
      ],
      "name": "transferFrom",
      "outputs": [
        {
          "name": "",
          "type": "bool"
        }
      ],
      "payable": false,
      "type": "function"
    },
    {
      "constant": false,
      "inputs": [
        {
          "name": "_value",
          "type": "uint256"
        }
      ],
      "name": "burn",
      "outputs": [],
      "payable": false,
      "type": "function"
    },
    {
      "constant": true,
      "inputs": [
        {
          "name": "_owner",
          "type": "address"
        }
      ],
      "name": "balanceOf",
      "outputs": [
        {
          "name": "balance",
          "type": "uint256"
        }
      ],
      "payable": false,
      "type": "function"
    },
    {
      "constant": false,
      "inputs": [
        {
          "name": "_to",
          "type": "address"
        },
        {
          "name": "_value",
          "type": "uint256"
        }
      ],
      "name": "transfer",
      "outputs": [
        {
          "name": "",
          "type": "bool"
        }
      ],
      "payable": false,
      "type": "function"
    },
    {
      "constant": true,
      "inputs": [
        {
          "name": "_owner",
          "type": "address"
        },
        {
          "name": "_spender",
          "type": "address"
        }
      ],
      "name": "allowance",
      "outputs": [
        {
          "name": "remaining",
          "type": "uint256"
        }
      ],
      "payable": false,
      "type": "function"
    },
    {
      "anonymous": false,
      "inputs": [
        {
          "indexed": true,
          "name": "burner",
          "type": "address"
        },
        {
          "indexed": true,
          "name": "value",
          "type": "uint256"
        }
      ],
      "name": "Burn",
      "type": "event"
    },
    {
      "anonymous": false,
      "inputs": [
        {
          "indexed": true,
          "name": "owner",
          "type": "address"
        },
        {
          "indexed": true,
          "name": "spender",
          "type": "address"
        },
        {
          "indexed": false,
          "name": "value",
          "type": "uint256"
        }
      ],
      "name": "Approval",
      "type": "event"
    },
    {
      "anonymous": false,
      "inputs": [
        {
          "indexed": true,
          "name": "from",
          "type": "address"
        },
        {
          "indexed": true,
          "name": "to",
          "type": "address"
        },
        {
          "indexed": false,
          "name": "value",
          "type": "uint256"
        }
      ],
      "name": "Transfer",
      "type": "event"
    }
  ],
  "bytecode": "0x6060604052341561000f57600080fd5b5b61059c8061001f6000396000f300606060405236156100805763ffffffff7c0100000000000000000000000000000000000000000000000000000000600035041663095ea7b3811461008557806318160ddd146100bb57806323b872dd146100e057806342966c681461011c57806370a0823114610134578063a9059cbb14610165578063dd62ed3e1461019b575b600080fd5b341561009057600080fd5b6100a7600160a060020a03600435166024356101d2565b604051901515815260200160405180910390f35b34156100c657600080fd5b6100ce610279565b60405190815260200160405180910390f35b34156100eb57600080fd5b6100a7600160a060020a036004358116906024351660443561027f565b604051901515815260200160405180910390f35b341561012757600080fd5b610132600435610394565b005b341561013f57600080fd5b6100ce600160a060020a0360043516610433565b60405190815260200160405180910390f35b341561017057600080fd5b6100a7600160a060020a0360043516602435610452565b604051901515815260200160405180910390f35b34156101a657600080fd5b6100ce600160a060020a0360043581169060243516610512565b60405190815260200160405180910390f35b60008115806102045750600160a060020a03338116600090815260026020908152604080832093871683529290522054155b151561020f57600080fd5b600160a060020a03338116600081815260026020908152604080832094881680845294909152908190208590557f8c5be1e5ebec7d5bd14f71427d1e84f3dd0314c0f7b2291e5b200ac8c7c3b9259085905190815260200160405180910390a35060015b92915050565b60005481565b600160a060020a0380841660009081526002602090815260408083203385168452825280832054938616835260019091528120549091906102c6908463ffffffff61053f16565b600160a060020a0380861660009081526001602052604080822093909355908716815220546102fb908463ffffffff61055916565b600160a060020a038616600090815260016020526040902055610324818463ffffffff61055916565b600160a060020a03808716600081815260026020908152604080832033861684529091529081902093909355908616917fddf252ad1be2c89b69c2b068fc378daa952ba7f163c4a11628f55a4df523b3ef9086905190815260200160405180910390a3600191505b509392505050565b60008082116103a257600080fd5b5033600160a060020a0381166000908152600160205260409020546103c79083610559565b600160a060020a038216600090815260016020526040812091909155546103f4908363ffffffff61055916565b60005581600160a060020a0382167fcc16f5dbb4873280815c1ee09dbd06736cffcc184412cf7a71a0fdb75d397ca560405160405180910390a35b5050565b600160a060020a0381166000908152600160205260409020545b919050565b600160a060020a03331660009081526001602052604081205461047b908363ffffffff61055916565b600160a060020a0333811660009081526001602052604080822093909355908516815220546104b0908363ffffffff61053f16565b600160a060020a0380851660008181526001602052604090819020939093559133909116907fddf252ad1be2c89b69c2b068fc378daa952ba7f163c4a11628f55a4df523b3ef9085905190815260200160405180910390a35060015b92915050565b600160a060020a038083166000908152600260209081526040808320938516835292905220545b92915050565b60008282018381101561054e57fe5b8091505b5092915050565b60008282111561056557fe5b508082035b929150505600a165627a7a7230582000465fa660b695220f7570c5f5c4985069483e9c88c3cb35b1f8270f90b4cc240029",
  "source": "pragma solidity ^0.4.13;\n\nimport 'zeppelin-solidity/contracts/token/StandardToken.sol';\n\n/**\n * @title Burnable Token\n * @dev Token that can be irreversibly burned (destroyed).\n */\ncontract BurnableToken is StandardToken {\n\n    /**\n     * @dev Burns a specific amount of tokens.\n     * @param _value The amount of token to be burned.\n     */\n    function burn(uint _value)\n        public\n    {\n        require(_value > 0);\n\n        address burner = msg.sender;\n        balances[burner] = balances[burner].sub(_value);\n        totalSupply = totalSupply.sub(_value);\n        Burn(burner, _value);\n    }\n\n    event Burn(address indexed burner, uint indexed value);\n}\n",
  "sourcePath": "/Users/bradlarson/src/eth-token/contracts/BurnableToken.sol",
  "schemaVersion": "1.0.0",
  "updatedAt": "2017-10-25T19:54:02.077Z"
}