{
  "contractName": "ECRecovery",
  "abi": [
    {
      "constant": true,
      "inputs": [
        {
          "name": "hash",
          "type": "bytes32"
        },
        {
          "name": "sig",
          "type": "bytes"
        }
      ],
      "name": "recover",
      "outputs": [
        {
          "name": "",
          "type": "address"
        }
      ],
      "payable": false,
      "type": "function"
    },
    {
      "inputs": [],
      "payable": false,
      "type": "constructor"
    }
  ],
  "bytecode": "0x6060604052341561000f57600080fd5b5b5b5b6101c9806100216000396000f300606060405263ffffffff7c010000000000000000000000000000000000000000000000000000000060003504166319045a25811461003d575b600080fd5b341561004857600080fd5b610093600480359060446024803590810190830135806020601f820181900481020160405190810160405281815292919060208401838380828437509496506100bc95505050505050565b60405173ffffffffffffffffffffffffffffffffffffffff909116815260200160405180910390f35b60008060008084516041146100d45760009350610193565b6020850151925060408501519150606085015160001a9050601b8160ff1610156100fc57601b015b8060ff16601b1415801561011457508060ff16601c14155b156101225760009350610193565b6001868285856040516000815260200160405260006040516020015260405193845260ff90921660208085019190915260408085019290925260608401929092526080909201915160208103908084039060008661646e5a03f1151561018757600080fd5b50506020604051035193505b5b505050929150505600a165627a7a7230582013c353577aced90aed709f0a6f57a05e699a4da5973edbf9ad92da531bd3acbd0029",
  "source": "pragma solidity ^0.4.11;\n\n\n/**\n * @title Eliptic curve signature operations\n *\n * @dev Based on https://gist.github.com/axic/5b33912c6f61ae6fd96d6c4a47afde6d\n */\n\ncontract ECRecovery {\n\n  function ECRecovery() { }\n\n  /**\n   * @dev Recover signer address from a message by using his signature\n   * @param hash bytes32 message, the hash is the signed message. What is recovered is the signer address.\n   * @param sig bytes signature, the signature is generated using web3.eth.sign()\n   */\n  function recover(bytes32 hash, bytes sig) constant returns (address) {\n    bytes32 r;\n    bytes32 s;\n    uint8 v;\n\n    //Check the signature length\n    if (sig.length != 65) {\n      return (address(0));\n    }\n\n    // Divide the signature in r, s and v variables\n    assembly {\n      r := mload(add(sig, 32))\n      s := mload(add(sig, 64))\n      v := byte(0, mload(add(sig, 96)))\n    }\n\n    // Version of signature should be 27 or 28, but 0 and 1 are also possible versions\n    if (v < 27) {\n      v += 27;\n    }\n\n    // If the version is correct return the signer address\n    if (v != 27 && v != 28) {\n      return (address(0));\n    } else {\n      return ecrecover(hash, v, r, s);\n    }\n  }\n\n}\n\n",
  "sourcePath": "/Users/bradlarson/src/eth-token/contracts/ECRecovery.sol",
  "schemaVersion": "1.0.0",
  "updatedAt": "2017-09-26T20:12:33.452Z"
}