{
  "contractName": "MemeToken",
  "abi": [
    {
      "constant": true,
      "inputs": [],
      "name": "mintingFinished",
      "outputs": [
        {
          "name": "",
          "type": "bool"
        }
      ],
      "payable": false,
      "type": "function"
    },
    {
      "constant": true,
      "inputs": [
        {
          "name": "person",
          "type": "address"
        },
        {
          "name": "shares",
          "type": "uint256"
        },
        {
          "name": "amount",
          "type": "uint256"
        },
        {
          "name": "validUntil",
          "type": "uint256"
        }
      ],
      "name": "hashOrder",
      "outputs": [
        {
          "name": "",
          "type": "bytes32"
        }
      ],
      "payable": false,
      "type": "function"
    },
    {
      "constant": true,
      "inputs": [
        {
          "name": "_spender",
          "type": "address"
        },
        {
          "name": "_value",
          "type": "uint256"
        }
      ],
      "name": "name",
      "outputs": [
        {
          "name": "",
          "type": "string"
        }
      ],
      "payable": false,
      "type": "function"
    },
    {
      "constant": false,
      "inputs": [
        {
          "name": "_spender",
          "type": "address"
        },
        {
          "name": "_value",
          "type": "uint256"
        },
        {
          "name": "_shares",
          "type": "uint256"
        },
        {
          "name": "_amount",
          "type": "uint256"
        },
        {
          "name": "_valid_until",
          "type": "uint256"
        },
        {
          "name": "_buyer_signature",
          "type": "bytes"
        },
        {
          "name": "_seller_signature",
          "type": "bytes"
        }
      ],
      "name": "approve",
      "outputs": [
        {
          "name": "",
          "type": "bool"
        }
      ],
      "payable": false,
      "type": "function"
    },
    {
      "constant": false,
      "inputs": [
        {
          "name": "_buyer",
          "type": "address"
        },
        {
          "name": "_seller",
          "type": "address"
        },
        {
          "name": "_shares",
          "type": "uint256"
        },
        {
          "name": "_amount",
          "type": "uint256"
        },
        {
          "name": "_valid_until",
          "type": "uint256"
        },
        {
          "name": "_buyer_signature",
          "type": "bytes"
        },
        {
          "name": "_seller_signature",
          "type": "bytes"
        }
      ],
      "name": "exchange",
      "outputs": [
        {
          "name": "",
          "type": "uint256"
        }
      ],
      "payable": true,
      "type": "function"
    },
    {
      "constant": true,
      "inputs": [
        {
          "name": "_from",
          "type": "address"
        },
        {
          "name": "_to",
          "type": "address"
        },
        {
          "name": "_value",
          "type": "uint256"
        }
      ],
      "name": "totalSupply",
      "outputs": [
        {
          "name": "",
          "type": "uint256"
        }
      ],
      "payable": false,
      "type": "function"
    },
    {
      "constant": false,
      "inputs": [
        {
          "name": "_from",
          "type": "address"
        },
        {
          "name": "_to",
          "type": "address"
        },
        {
          "name": "_value",
          "type": "uint256"
        }
      ],
      "name": "transferFrom",
      "outputs": [
        {
          "name": "",
          "type": "bool"
        }
      ],
      "payable": false,
      "type": "function"
    },
    {
      "constant": false,
      "inputs": [
        {
          "name": "amount",
          "type": "uint256"
        }
      ],
      "name": "withdraw",
      "outputs": [
        {
          "name": "",
          "type": "uint256"
        }
      ],
      "payable": true,
      "type": "function"
    },
    {
      "constant": true,
      "inputs": [],
      "name": "INITIAL_SUPPLY",
      "outputs": [
        {
          "name": "",
          "type": "uint256"
        }
      ],
      "payable": false,
      "type": "function"
    },
    {
      "constant": true,
      "inputs": [
        {
          "name": "hash",
          "type": "bytes32"
        },
        {
          "name": "sig",
          "type": "bytes"
        },
        {
          "name": "signer",
          "type": "address"
        }
      ],
      "name": "decimals",
      "outputs": [
        {
          "name": "",
          "type": "uint256"
        }
      ],
      "payable": false,
      "type": "function"
    },
    {
      "constant": true,
      "inputs": [
        {
          "name": "hash",
          "type": "bytes32"
        },
        {
          "name": "sig",
          "type": "bytes"
        },
        {
          "name": "signer",
          "type": "address"
        }
      ],
      "name": "verifySignature",
      "outputs": [
        {
          "name": "",
          "type": "bool"
        }
      ],
      "payable": false,
      "type": "function"
    },
    {
      "constant": false,
      "inputs": [
        {
          "name": "_to",
          "type": "address"
        },
        {
          "name": "_amount",
          "type": "uint256"
        },
        {
          "name": "amount",
          "type": "uint256"
        },
        {
          "name": "validUntil",
          "type": "uint256"
        }
      ],
      "name": "mint",
      "outputs": [
        {
          "name": "",
          "type": "bool"
        }
      ],
      "payable": false,
      "type": "function"
    },
    {
      "constant": false,
      "inputs": [
        {
          "name": "_value",
          "type": "uint256"
        },
        {
          "name": "shares",
          "type": "uint256"
        },
        {
          "name": "amount",
          "type": "uint256"
        },
        {
          "name": "validUntil",
          "type": "uint256"
        }
      ],
      "name": "burn",
      "outputs": [
        {
          "name": "",
          "type": "bytes32"
        }
      ],
      "payable": false,
      "type": "function"
    },
    {
      "constant": true,
      "inputs": [
        {
          "name": "sig",
          "type": "bytes"
        }
      ],
      "name": "sellPrice",
      "outputs": [
        {
          "name": "",
          "type": "uint256"
        }
      ],
      "payable": false,
      "type": "function"
    },
    {
      "constant": true,
      "inputs": [
        {
          "name": "sig",
          "type": "bytes"
        }
      ],
      "name": "getCancelStatus",
      "outputs": [
        {
          "name": "",
          "type": "bool"
        }
      ],
      "payable": false,
      "type": "function"
    },
    {
      "constant": false,
      "inputs": [
        {
          "name": "_owner",
          "type": "address"
        }
      ],
      "name": "sellToContract",
      "outputs": [
        {
          "name": "balance",
          "type": "uint256"
        }
      ],
      "payable": true,
      "type": "function"
    },
    {
      "constant": true,
      "inputs": [
        {
          "name": "_owner",
          "type": "address"
        },
        {
          "name": "_seller",
          "type": "address"
        },
        {
          "name": "_shares",
          "type": "uint256"
        },
        {
          "name": "_amount",
          "type": "uint256"
        },
        {
          "name": "_buyer_signature",
          "type": "bytes"
        },
        {
          "name": "_seller_signature",
          "type": "bytes"
        }
      ],
      "name": "balanceOf",
      "outputs": [
        {
          "name": "balance",
          "type": "uint256"
        }
      ],
      "payable": false,
      "type": "function"
    },
    {
      "constant": false,
      "inputs": [
        {
          "name": "_buyer",
          "type": "address"
        },
        {
          "name": "_seller",
          "type": "address"
        },
        {
          "name": "_shares",
          "type": "uint256"
        },
        {
          "name": "_amount",
          "type": "uint256"
        },
        {
          "name": "_buyer_signature",
          "type": "bytes"
        },
        {
          "name": "_seller_signature",
          "type": "bytes"
        }
      ],
      "name": "exchange",
      "outputs": [
        {
          "name": "",
          "type": "bool"
        }
      ],
      "payable": true,
      "type": "function"
    },
    {
      "constant": false,
      "inputs": [],
      "name": "finishMinting",
      "outputs": [
        {
          "name": "",
          "type": "bool"
        }
      ],
      "payable": false,
      "type": "function"
    },
    {
      "constant": true,
      "inputs": [],
      "name": "buyPrice",
      "outputs": [
        {
          "name": "",
          "type": "uint256"
        }
      ],
      "payable": false,
      "type": "function"
    },
    {
      "constant": true,
      "inputs": [],
      "name": "owner",
      "outputs": [
        {
          "name": "",
          "type": "address"
        }
      ],
      "payable": false,
      "type": "function"
    },
    {
      "constant": true,
      "inputs": [
        {
          "name": "",
          "type": "uint256"
        }
      ],
      "name": "symbol",
      "outputs": [
        {
          "name": "",
          "type": "string"
        },
        {
          "name": "buyer",
          "type": "address"
        },
        {
          "name": "shares",
          "type": "uint256"
        },
        {
          "name": "amount",
          "type": "uint256"
        }
      ],
      "payable": false,
      "type": "function"
    },
    {
      "constant": true,
      "inputs": [
        {
          "name": "",
          "type": "uint256"
        },
        {
          "name": "_value",
          "type": "uint256"
        }
      ],
      "name": "lastTrades",
      "outputs": [
        {
          "name": "seller",
          "type": "address"
        },
        {
          "name": "buyer",
          "type": "address"
        },
        {
          "name": "shares",
          "type": "uint256"
        },
        {
          "name": "amount",
          "type": "uint256"
        }
      ],
      "payable": false,
      "type": "function"
    },
    {
      "constant": false,
      "inputs": [
        {
          "name": "_to",
          "type": "address"
        },
        {
          "name": "_value",
          "type": "uint256"
        }
      ],
      "name": "transfer",
      "outputs": [
        {
          "name": "",
          "type": "bool"
        }
      ],
      "payable": false,
      "type": "function"
    },
    {
      "constant": false,
      "inputs": [
        {
          "name": "person",
          "type": "address"
        },
        {
          "name": "shares",
          "type": "uint256"
        },
        {
          "name": "amount",
          "type": "uint256"
        }
      ],
      "name": "buyFromContract",
      "outputs": [
        {
          "name": "",
          "type": "bytes32"
        }
      ],
      "payable": true,
      "type": "function"
    },
    {
      "constant": false,
      "inputs": [
        {
          "name": "shares",
          "type": "uint256"
        },
        {
          "name": "amount",
          "type": "uint256"
        },
        {
          "name": "validUntil",
          "type": "uint256"
        },
        {
          "name": "sig",
          "type": "bytes"
        },
        {
          "name": "valid",
          "type": "bool"
        }
      ],
      "name": "updateOrderCancellation",
      "outputs": [
        {
          "name": "",
          "type": "bytes32"
        }
      ],
      "payable": false,
      "type": "function"
    },
    {
      "constant": true,
      "inputs": [
        {
          "name": "person",
          "type": "address"
        },
        {
          "name": "shares",
          "type": "uint256"
        },
        {
          "name": "amount",
          "type": "uint256"
        },
        {
          "name": "sig",
          "type": "bytes"
        },
        {
          "name": "valid",
          "type": "bool"
        }
      ],
      "name": "hashOrder",
      "outputs": [
        {
          "name": "",
          "type": "bytes32"
        }
      ],
      "payable": false,
      "type": "function"
    },
    {
      "constant": false,
      "inputs": [],
      "name": "deposit",
      "outputs": [
        {
          "name": "",
          "type": "uint256"
        }
      ],
      "payable": true,
      "type": "function"
    },
    {
      "constant": true,
      "inputs": [
        {
          "name": "_owner",
          "type": "address"
        },
        {
          "name": "_spender",
          "type": "address"
        }
      ],
      "name": "STARTING_PRICE",
      "outputs": [
        {
          "name": "",
          "type": "uint256"
        }
      ],
      "payable": false,
      "type": "function"
    },
    {
      "constant": true,
      "inputs": [
        {
          "name": "person",
          "type": "address"
        },
        {
          "name": "shares",
          "type": "uint256"
        },
        {
          "name": "amount",
          "type": "uint256"
        }
      ],
      "name": "hashBoundedOrder",
      "outputs": [
        {
          "name": "",
          "type": "bytes32"
        }
      ],
      "payable": false,
      "type": "function"
    },
    {
      "constant": true,
      "inputs": [
        {
          "name": "_owner",
          "type": "address"
        },
        {
          "name": "_spender",
          "type": "address"
        },
        {
          "name": "sig",
          "type": "bytes"
        },
        {
          "name": "valid",
          "type": "bool"
        }
      ],
      "name": "allowance",
      "outputs": [
        {
          "name": "remaining",
          "type": "uint256"
        }
      ],
      "payable": false,
      "type": "function"
    },
    {
      "constant": false,
      "inputs": [
        {
          "name": "newOwner",
          "type": "address"
        },
        {
          "name": "amount",
          "type": "uint256"
        },
        {
          "name": "sig",
          "type": "bytes"
        },
        {
          "name": "valid",
          "type": "bool"
        }
      ],
      "name": "transferOwnership",
      "outputs": [
        {
          "name": "",
          "type": "uint256"
        }
      ],
      "payable": false,
      "type": "function"
    },
    {
      "inputs": [
        {
          "name": "shares",
          "type": "uint256"
        },
        {
          "name": "amount",
          "type": "uint256"
        },
        {
          "name": "sig",
          "type": "bytes"
        },
        {
          "name": "valid",
          "type": "bool"
        }
      ],
      "payable": false,
      "type": "function",
      "constant": false,
      "name": "updateOrderCancellation",
      "outputs": [
        {
          "name": "",
          "type": "uint256"
        }
      ]
    },
    {
      "anonymous": false,
      "inputs": [
        {
          "indexed": true,
          "name": "",
          "type": "address"
        },
        {
          "indexed": false,
          "name": "amount",
          "type": "uint256"
        }
      ],
      "name": "deposits",
      "type": "function",
      "payable": false,
      "constant": true,
      "outputs": [
        {
          "name": "",
          "type": "uint256"
        }
      ]
    },
    {
      "anonymous": false,
      "inputs": [
        {
          "indexed": true,
          "name": "_name",
          "type": "string"
        },
        {
          "indexed": false,
          "name": "amount",
          "type": "uint256"
        }
      ],
      "name": "Mint",
      "type": "constructor",
      "payable": false
    },
    {
      "anonymous": false,
      "inputs": [
        {
          "indexed": true,
          "name": "to",
          "type": "address"
        },
        {
          "indexed": false,
          "name": "amount",
          "type": "uint256"
        }
      ],
      "name": "Mint",
      "type": "event"
    },
    {
      "anonymous": false,
      "inputs": [
        {
          "indexed": true,
          "name": "burner",
          "type": "address"
        },
        {
          "indexed": true,
          "name": "value",
          "type": "uint256"
        },
        {
          "indexed": false,
          "name": "value",
          "type": "uint256"
        }
      ],
      "name": "MintFinished",
      "type": "event"
    },
    {
      "anonymous": false,
      "inputs": [
        {
          "indexed": true,
          "name": "burner",
          "type": "address"
        },
        {
          "indexed": true,
          "name": "value",
          "type": "uint256"
        },
        {
          "indexed": false,
          "name": "value",
          "type": "uint256"
        }
      ],
      "name": "Burn",
      "type": "event"
    },
    {
      "anonymous": false,
      "inputs": [
        {
          "indexed": true,
          "name": "owner",
          "type": "address"
        },
        {
          "indexed": true,
          "name": "spender",
          "type": "address"
        },
        {
          "indexed": false,
          "name": "value",
          "type": "uint256"
        }
      ],
      "name": "Approval",
      "type": "event"
    },
    {
      "anonymous": false,
      "inputs": [
        {
          "indexed": true,
          "name": "from",
          "type": "address"
        },
        {
          "indexed": true,
          "name": "to",
          "type": "address"
        },
        {
          "indexed": false,
          "name": "value",
          "type": "uint256"
        }
      ],
      "name": "Transfer",
      "type": "event"
    }
  ],
  "bytecode": "0x606060409081526003805460a060020a60ff02191690558051908101604052600981527f4d656d65546f6b656e0000000000000000000000000000000000000000000000602082015260049080516200005d92916020019062000452565b5060408051908101604052600381527f484548000000000000000000000000000000000000000000000000000000000060208201526005908051620000a792916020019062000452565b506000600655600560075566038d7ea4c6800060085566038d7ea4c68000600955600954600a553415620000da57600080fd5b6040516200263e3803806200263e8339810160405280805190910190505b5b60038054600160a060020a03191633600160a060020a03161790555b60048180516200012a92916020019062000452565b506007546000818155600160a060020a033316815260016020526040908190209190915562000198906080905190810160409081526000825233600160a060020a0316602083015260075490820181905260085402606082015264010000000062001e4f620001a082021704565b5b50620004fc565b6000808080620001be85640100000000620020a06200040782021704565b9350839250829150601890505b60008111156200030457600b600019820160198110620001e757fe5b6004020160005b50600b8260198110620001fd57fe5b6004020160005b5081548154600160a060020a03918216600160a060020a03199182161783556001808501549084018054919093169116179055600280830154908201556003918201549101556000600b82601981106200025a57fe5b6004020160005b50600201541115620002f757620002d6600b82601981106200027f57fe5b6004020160005b50608060405190810160409081528254600160a060020a03908116835260018401541660208301526002830154908201526003909101546060820152640100000000620020a06200040782021704565b935082841115620002ea57839250620002f7565b81841015620002f7578391505b5b5b5b60001901620001cb565b84600b60005b6004020160005b5081518154600160a060020a031916600160a060020a03919091161781556020820151600182018054600160a060020a031916600160a060020a03929092169190911790556040820151816002015560608201516003909101555064e8d4a51000600160a060020a033016311015620003975730600160a060020a0316319150620003a4565b64e8d4a51000600a540391505b64e8d4a5100083016009556020850151600160a060020a03168551600160a060020a03167fddf252ad1be2c89b69c2b068fc378daa952ba7f163c4a11628f55a4df523b3ef876040015160405190815260200160405180910390a35b5050505050565b6000808260400151116200041e575060006200044d565b600082606001511162000434575060006200044d565b5b816040015182606001518115156200044957fe5b0490505b919050565b828054600181600116156101000203166002900490600052602060002090601f016020900481019282601f106200049557805160ff1916838001178555620004c5565b82800160010185558215620004c5579182015b82811115620004c5578251825591602001919060010190620004a8565b5b50620004d4929150620004d8565b5090565b620004f991905b80821115620004d45760008155600101620004df565b5090565b90565b612132806200050c6000396000f300606060405236156101a95763ffffffff7c010000000000000000000000000000000000000000000000000000000060003504166305d2035b81146101ae57806306ea2704146101d557806306fdde031461020f578063095ea7b31461029a578063142b0081146102d057806318160ddd1461037d57806323b872dd146103a25780632e1a7d4d146103de5780632ff2e9dc146103eb578063313ce5671461041057806331cd41991461043557806340c10f19146104aa57806342966c68146104e05780634b750334146104f85780634f37be351461051d57806352d3642d1461058257806370a082311461058c5780637d0a11f3146105bd5780637d64bcb4146106675780638620410b1461068e5780638da5cb5b146106b357806395d89b41146106e25780639e7ea1b61461076d578063a9059cbb146107b8578063a99b929c146107ee578063be192b62146107f8578063cfd7091d1461085d578063d0e30db014610894578063d12f70291461089e578063d8e438911461085d578063dd62ed3e146108fa578063f2fde38b14610931578063f691e4d014610952578063fc7e286d146109b4575b600080fd5b34156101b957600080fd5b6101c16109e5565b604051901515815260200160405180910390f35b34156101e057600080fd5b6101fd600160a060020a0360043516602435604435606435610a06565b60405190815260200160405180910390f35b341561021a57600080fd5b610222610a54565b60405160208082528190810183818151815260200191508051906020019080838360005b8381101561025f5780820151818401525b602001610246565b50505050905090810190601f16801561028c5780820380516001836020036101000a031916815260200191505b509250505060405180910390f35b34156102a557600080fd5b6101c1600160a060020a0360043516602435610af2565b604051901515815260200160405180910390f35b61037b600160a060020a0360048035821691602480359091169160443591606435916084359160c49060a43590810190830135806020601f8201819004810201604051908101604052818152929190602084018383808284378201915050505050509190803590602001908201803590602001908080601f016020809104026020016040519081016040528181529291906020840183838082843750949650610b9995505050505050565b005b341561038857600080fd5b6101fd610dce565b60405190815260200160405180910390f35b34156103ad57600080fd5b6101c1600160a060020a0360043581169060243516604435610dd4565b604051901515815260200160405180910390f35b61037b600435610ed7565b005b34156103f657600080fd5b6101fd610f76565b60405190815260200160405180910390f35b341561041b57600080fd5b6101fd610f7c565b60405190815260200160405180910390f35b341561044057600080fd5b6101c1600480359060446024803590810190830135806020601f8201819004810201604051908101604052818152929190602084018383808284375094965050509235600160a060020a03169250610f82915050565b604051901515815260200160405180910390f35b34156104b557600080fd5b6101c1600160a060020a0360043516602435610fac565b604051901515815260200160405180910390f35b34156104eb57600080fd5b61037b60043561108e565b005b341561050357600080fd5b6101fd61112d565b60405190815260200160405180910390f35b341561052857600080fd5b6101c160046024813581810190830135806020601f8201819004810201604051908101604052818152929190602084018383808284375094965061113395505050505050565b604051901515815260200160405180910390f35b61037b6111a8565b005b341561059757600080fd5b6101fd600160a060020a0360043516611302565b60405190815260200160405180910390f35b61037b600160a060020a0360048035821691602480359091169160443591606435919060a49060843590810190830135806020601f8201819004810201604051908101604052818152929190602084018383808284378201915050505050509190803590602001908201803590602001908080601f01602080910402602001604051908101604052818152929190602084018383808284375094965061132195505050505050565b005b341561067257600080fd5b6101c1611545565b604051901515815260200160405180910390f35b341561069957600080fd5b6101fd6115cc565b60405190815260200160405180910390f35b34156106be57600080fd5b6106c66115d2565b604051600160a060020a03909116815260200160405180910390f35b34156106ed57600080fd5b6102226115e1565b60405160208082528190810183818151815260200191508051906020019080838360005b8381101561025f5780820151818401525b602001610246565b50505050905090810190601f16801561028c5780820380516001836020036101000a031916815260200191505b509250505060405180910390f35b341561077857600080fd5b61078360043561167f565b604051600160a060020a0394851681529290931660208301526040808301919091526060820192909252608001905180910390f35b34156107c357600080fd5b6101c1600160a060020a03600435166024356116ba565b604051901515815260200160405180910390f35b61037b611768565b005b341561080357600080fd5b61037b600480359060248035916044359160849060643590810190830135806020601f820181900481020160405190810160405281815292919060208401838380828437509496505050509135151591506118ae9050565b005b341561086857600080fd5b6101fd600160a060020a0360043516602435604435611954565b60405190815260200160405180910390f35b61037b61199b565b005b34156108a957600080fd5b6101fd6119e0565b60405190815260200160405180910390f35b341561086857600080fd5b6101fd600160a060020a0360043516602435604435611954565b60405190815260200160405180910390f35b341561090557600080fd5b6101fd600160a060020a0360043581169060243516611a2d565b60405190815260200160405180910390f35b341561093c57600080fd5b61037b600160a060020a0360043516611a5a565b005b341561095d57600080fd5b61037b600480359060248035919060649060443590810190830135806020601f82018190048102016040519081016040528181529291906020840183838082843750949650505050913515159150611ab29050565b005b34156109bf57600080fd5b6101fd600160a060020a0360043516611b56565b60405190815260200160405180910390f35b60035474010000000000000000000000000000000000000000900460ff1681565b600084848484604051600160a060020a03949094166c01000000000000000000000000028452601484019290925260348301526054820152607401604051809103902090505b949350505050565b60048054600181600116156101000203166002900480601f016020809104026020016040519081016040528092919081815260200182805460018160011615610100020316600290048015610aea5780601f10610abf57610100808354040283529160200191610aea565b820191906000526020600020905b815481529060010190602001808311610acd57829003601f168201915b505050505081565b6000811580610b245750600160a060020a03338116600090815260026020908152604080832093871683529290522054155b1515610b2f57600080fd5b600160a060020a03338116600081815260026020908152604080832094881680845294909152908190208590557f8c5be1e5ebec7d5bd14f71427d1e84f3dd0314c0f7b2291e5b200ac8c7c3b9259085905190815260200160405180910390a35060015b92915050565b6000808611610ba757600080fd5b60008511610bb457600080fd5b4284901115610bc257600080fd5b600160a060020a03871660009081526001602052604090205486901015610be857600080fd5b6070836040518082805190602001908083835b60208310610c1b57805182525b601f199092019160209182019101610bfb565b6001836020036101000a0380198251168184511680821785525050505050509050019150509081526020016040519081900390205460ff1615610c5d57600080fd5b6070826040518082805190602001908083835b60208310610c9057805182525b601f199092019160209182019101610c70565b6001836020036101000a0380198251168184511680821785525050505050509050019150509081526020016040519081900390205460ff1615610cd257600080fd5b843410905086600160a060020a031633600160a060020a03161415610d205750600160a060020a0387166000908152606f602052604090205460019085901015610d1b57600080fd5b610d73565b87600160a060020a031633600160a060020a0316141515610d4057600080fd5b8434101580610d685750600160a060020a0388166000908152606f6020526040902054859010155b1515610d7357600080fd5b5b610d8a610d8389888888610a06565b848a610f82565b1515610d9557600080fd5b610dab610da488888888610a06565b8389610f82565b1515610db657600080fd5b610dc38888888885611b68565b5b5050505050505050565b60005481565b600160a060020a038084166000908152600260209081526040808320338516845282528083205493861683526001909152812054909190610e1b908463ffffffff611d3d16565b600160a060020a038086166000908152600160205260408082209390935590871681522054610e50908463ffffffff611d5716565b600160a060020a038616600090815260016020526040902055610e79818463ffffffff611d5716565b600160a060020a03808716600081815260026020908152604080832033861684529091529081902093909355908616916000805160206120e78339815191529086905190815260200160405180910390a3600191505b509392505050565b33600160a060020a0381166000908152606f6020526040902054829081901015610f0057600080fd5b600160a060020a0333166000908152606f6020526040902054610f29908463ffffffff611d5716565b600160a060020a0333166000818152606f602052604090819020929092559084156108fc0290859051600060405180830381858888f193505050501515610f6f57600080fd5b5b5b505050565b60075481565b60065481565b600081600160a060020a0316610f988585611d6e565b600160a060020a03161490505b9392505050565b60035460009033600160a060020a03908116911614610fca57600080fd5b60035474010000000000000000000000000000000000000000900460ff1615610ff257600080fd5b600054611005908363ffffffff611d3d16565b6000908155600160a060020a038416815260016020526040902054611030908363ffffffff611d3d16565b600160a060020a0384166000818152600160205260409081902092909255907f0f6798a560793a54c3bcfe86a93cde1e73087d944c0ea20544137d41213968859084905190815260200160405180910390a25060015b5b5b92915050565b600080821161109c57600080fd5b5033600160a060020a0381166000908152600160205260409020546110c19083611d57565b600160a060020a038216600090815260016020526040812091909155546110ee908363ffffffff611d5716565b60005581600160a060020a0382167fcc16f5dbb4873280815c1ee09dbd06736cffcc184412cf7a71a0fdb75d397ca560405160405180910390a35b5050565b600a5481565b60006070826040518082805190602001908083835b6020831061116857805182525b601f199092019160209182019101611148565b6001836020036101000a0380198251168184511680821785525050505050509050019150509081526020016040519081900390205460ff1690505b919050565b33600160a060020a038116600090815260016020819052604090912054819010156111d257600080fd5b600a54600160a060020a0330163110156111eb57600080fd5b6000546111ff90600163ffffffff611d5716565b6000908155600160a060020a03331681526001602081905260409091205461122c9163ffffffff611d5716565b600160a060020a033316600090815260016020526040908190209190915561128090608090519081016040908152600160a060020a033316825260006020830152600190820152600a546060820152611e4f565b600133600160a060020a03167fcc16f5dbb4873280815c1ee09dbd06736cffcc184412cf7a71a0fdb75d397ca560405160405180910390a3600a54600160a060020a0333166000908152606f60205260409020546112e39163ffffffff611d3d16565b600160a060020a0333166000908152606f60205260409020555b5b5050565b600160a060020a0381166000908152600160205260409020545b919050565b600080851161132f57600080fd5b6000841161133c57600080fd5b600160a060020a0386166000908152600160205260409020548590101561136257600080fd5b6070836040518082805190602001908083835b6020831061139557805182525b601f199092019160209182019101611375565b6001836020036101000a0380198251168184511680821785525050505050509050019150509081526020016040519081900390205460ff16156113d757600080fd5b6070826040518082805190602001908083835b6020831061140a57805182525b601f1990920191602091820191016113ea565b6001836020036101000a0380198251168184511680821785525050505050509050019150509081526020016040519081900390205460ff161561144c57600080fd5b833410905085600160a060020a031633600160a060020a0316141561149a5750600160a060020a0386166000908152606f60205260409020546001908490101561149557600080fd5b6114ed565b86600160a060020a031633600160a060020a03161415156114ba57600080fd5b83341015806114e25750600160a060020a0387166000908152606f6020526040902054849010155b15156114ed57600080fd5b5b6115036114fc888787611954565b8489610f82565b151561150e57600080fd5b61152361151c878787611954565b8388610f82565b151561152e57600080fd5b61153b8787878785611b68565b5b50505050505050565b60035460009033600160a060020a0390811691161461156357600080fd5b6003805474ff00000000000000000000000000000000000000001916740100000000000000000000000000000000000000001790557fae5184fba832cb2b1f702aca6117b8d265eaf03ad33eb133f19dde0f5920fa0860405160405180910390a15060015b5b90565b60095481565b600354600160a060020a031681565b60058054600181600116156101000203166002900480601f016020809104026020016040519081016040528092919081815260200182805460018160011615610100020316600290048015610aea5780601f10610abf57610100808354040283529160200191610aea565b820191906000526020600020905b815481529060010190602001808311610acd57829003601f168201915b505050505081565b600b816019811061168c57fe5b6004020160005b50805460018201546002830154600390930154600160a060020a0392831694509116919084565b600160a060020a0333166000908152600160205260408120546116e3908363ffffffff611d5716565b600160a060020a033381166000908152600160205260408082209390935590851681522054611718908363ffffffff611d3d16565b600160a060020a0380851660008181526001602052604090819020939093559133909116906000805160206120e78339815191529085905190815260200160405180910390a35060015b92915050565b60008060095480341015151561177d57600080fd5b6009549250823403915061179d6001600054611d3d90919063ffffffff16565b6000908155600160a060020a0333168152600160208190526040909120546117ca9163ffffffff611d3d16565b600160a060020a033316600090815260016020526040908190209190915561181d906080905190810160409081526000825233600160a060020a0316602083015260019082015260608101859052611e4f565b33600160a060020a03167f0f6798a560793a54c3bcfe86a93cde1e73087d944c0ea20544137d4121396885600160405190815260200160405180910390a26000821115610f6f57600160a060020a0333166000908152606f602052604090205461188d908363ffffffff611d3d16565b600160a060020a0333166000908152606f60205260409020555b5b5b505050565b60006118bc33878787610a06565b90506118c9818433610f82565b15156118d457600080fd5b816070846040518082805190602001908083835b6020831061190857805182525b601f1990920191602091820191016118e8565b6001836020036101000a038019825116818451168082178552505050505050905001915050908152602001604051908190039020805460ff19169115159190911790555b505050505050565b6000838383604051600160a060020a03939093166c0100000000000000000000000002835260148301919091526034820152605401604051809103902090505b9392505050565b600160a060020a0333166000908152606f60205260409020546119c4903463ffffffff611d3d16565b600160a060020a0333166000908152606f60205260409020555b565b60085481565b6000838383604051600160a060020a03939093166c0100000000000000000000000002835260148301919091526034820152605401604051809103902090505b9392505050565b600160a060020a038083166000908152600260209081526040808320938516835292905220545b92915050565b60035433600160a060020a03908116911614611a7557600080fd5b600160a060020a03811615611aad576003805473ffffffffffffffffffffffffffffffffffffffff1916600160a060020a0383161790555b5b5b50565b6000611abf338686611954565b9050611acc818433610f82565b1515611ad757600080fd5b816070846040518082805190602001908083835b60208310611b0b57805182525b601f199092019160209182019101611aeb565b6001836020036101000a038019825116818451168082178552505050505050905001915050908152602001604051908190039020805460ff19169115159190911790555b5050505050565b606f6020526000908152604090205481565b600160a060020a038416600090815260016020526040812054611b91908563ffffffff611d5716565b600160a060020a038087166000908152600160205260408082209390935590881681522054611bc6908563ffffffff611d3d16565b600160a060020a0387166000908152600160205260409020558115611c2857600160a060020a0386166000908152606f6020526040902054611c0e908463ffffffff611d5716565b600160a060020a0387166000908152606f60205260409020555b600160a060020a0385166000908152606f6020526040902054611c51908463ffffffff611d3d16565b600160a060020a0386166000908152606f602052604090205581611c7757823403611c79565b345b600160a060020a0333166000908152606f6020526040902054909150611ca5908263ffffffff611d3d16565b600160a060020a0333166000908152606f60205260409081902091909155611cff90608090519081016040528088600160a060020a0316815260200187600160a060020a0316815260200186815260200185815250611e4f565b84600160a060020a031686600160a060020a03166000805160206120e78339815191528660405190815260200160405180910390a35b505050505050565b600082820183811015611d4c57fe5b8091505b5092915050565b600082821115611d6357fe5b508082035b92915050565b6000806000808451604114611d865760009350611e45565b6020850151925060408501519150606085015160001a9050601b8160ff161015611dae57601b015b8060ff16601b14158015611dc657508060ff16601c14155b15611dd45760009350611e45565b6001868285856040516000815260200160405260006040516020015260405193845260ff90921660208085019190915260408085019290925260608401929092526080909201915160208103908084039060008661646e5a03f11515611e3957600080fd5b50506020604051035193505b5b50505092915050565b600080600080611e5e856120a0565b9350839250829150601890505b6000811115611f9757600b600019820160198110611e8557fe5b6004020160005b50600b8260198110611e9a57fe5b6004020160005b5081548154600160a060020a0391821673ffffffffffffffffffffffffffffffffffffffff199182161783556001808501549084018054919093169116179055600280830154908201556003918201549101556000600b8260198110611f0357fe5b6004020160005b50600201541115611f8b57611f6d600b8260198110611f2557fe5b6004020160005b50608060405190810160409081528254600160a060020a039081168352600184015416602083015260028301549082015260039091015460608201526120a0565b935082841115611f7f57839250611f8b565b81841015611f8b578391505b5b5b5b60001901611e6b565b84600b60005b6004020160005b508151815473ffffffffffffffffffffffffffffffffffffffff1916600160a060020a0391909116178155602082015160018201805473ffffffffffffffffffffffffffffffffffffffff1916600160a060020a03929092169190911790556040820151816002015560608201516003909101555064e8d4a51000600160a060020a0330163110156120425730600160a060020a031631915061204f565b64e8d4a51000600a540391505b64e8d4a5100083016009556020850151600160a060020a03168551600160a060020a03166000805160206120e7833981519152876040015160405190815260200160405180910390a35b5050505050565b6000808260400151116120b5575060006111a3565b60008260600151116120c9575060006111a3565b5b816040015182606001518115156120dd57fe5b0490505b9190505600ddf252ad1be2c89b69c2b068fc378daa952ba7f163c4a11628f55a4df523b3efa165627a7a72305820b7bb3f16afcfb5dc7d160ef9ffd96c4e27ac351d1f075dcd9ff46c446ee47e040029",
  "source": "pragma solidity ^0.4.4;\nimport '/Users/bradlarson/src/eth-token/contracts/BurnableToken.sol';\nimport \"/Users/bradlarson/src/eth-token/contracts/strings.sol\";\nimport 'zeppelin-solidity/contracts/token/MintableToken.sol';\n\ncontract MemeToken is BurnableToken, MintableToken {\n  using strings for *;\n\n  struct Trade {\n    address seller;\n    address buyer;\n    uint shares;\n    uint amount;\n  }\n\n  string public name = 'MemeToken';\n  string public symbol = 'HEH';\n  uint public decimals = 0;\n  uint public INITIAL_SUPPLY = 5;\n  uint public STARTING_PRICE = 1 finney;\n  uint public buyPrice = 1 finney;\n  uint public sellPrice = buyPrice;\n  Trade[25] public lastTrades;\n  mapping (address => uint) public deposits; // This will allow for withdraw pattern and pre-funding by buyer\n\n  // Maps the order sig to whether or not it has been cancelled\n  // This would only matter for orders that are open ended\n  mapping (bytes => bool) cancelledOrders;\n\n  function MemeToken(string _name) {\n    name = _name;\n    totalSupply = INITIAL_SUPPLY;\n    balances[msg.sender] = INITIAL_SUPPLY;\n    // This should reset the price to 0, unless the contract was seeded with some ETH\n    trackTrade(Trade(0x0, msg.sender, INITIAL_SUPPLY, INITIAL_SUPPLY * STARTING_PRICE));\n  }\n\n  // Modifiers\n  modifier hasSufficientBalance(address seller, uint shares) {\n    require(balances[seller] >= shares);\n    _;\n  }\n\n  modifier hasSufficientFunds(uint amount) {\n    require(msg.value >= amount);\n    _;\n  }\n\n  modifier hasSufficientDeposits(address _address, uint amount) {\n    require(deposits[_address] >= amount);\n    _;\n  }\n\n  // modifier validSignature(address _address, uint shares, uint amount, bytes signature) {\n  //   require(verifySignature(hashUnboundedOrder(_address, shares, amount), signature, _address));\n  //   _;\n  // }\n\n  // modifier validSigWithTTL(address _address, uint shares, uint amount, uint validUntil, bytes signature) {\n  //   require(verifySignature(shares, amount, validUntil, signature, _address));\n  //   _;\n  // }\n\n  // Roughly 610k gas\n  // Might want to update this to be able to use deposits\n  function buyFromContract() payable hasSufficientFunds(buyPrice) {\n    uint currentBuyPrice = buyPrice;\n    uint change = msg.value - currentBuyPrice;\n\n    totalSupply = totalSupply.add(1);\n    balances[msg.sender] = balances[msg.sender].add(1);\n\n    trackTrade(Trade(0x0, msg.sender, 1, currentBuyPrice));\n    Mint(msg.sender, 1);\n\n    if (change > 0) {\n      // msg.sender.transfer(change); //This might not be safe, so use a deposit (pull) method for now\n      deposits[msg.sender] = deposits[msg.sender].add(change);\n    }\n  }\n\n  // Roughly 620k gas\n  // Might want to update this to simply credit the seller\n  function sellToContract() payable hasSufficientBalance(msg.sender, 1) {\n    require(this.balance >= sellPrice);\n\n    totalSupply = totalSupply.sub(1);\n    balances[msg.sender] = balances[msg.sender].sub(1);\n\n    trackTrade(Trade(msg.sender, 0x0, 1, sellPrice));\n    Burn(msg.sender, 1);\n\n    deposits[msg.sender] = deposits[msg.sender].add(sellPrice);\n    // msg.sender.transfer(sellPrice); // This is l\n  }\n\n  // This version of exchange accepts unbounded orders\n  // where no explicit TTL is set.\n  // Instead, you can manually cancel the order\n  function exchange(\n    address _buyer,\n    address _seller,\n    uint _shares,\n    uint _amount,\n    bytes _buyer_signature,\n    bytes _seller_signature\n  ) payable {\n    // Tried putting these into modifiers, but got stack too deep exceptions\n    require(_shares > 0);\n    require(_amount > 0);\n    require(balances[_seller] >= _shares);\n    require(!cancelledOrders[_buyer_signature]);\n    require(!cancelledOrders[_seller_signature]);\n\n    bool useDeposits = msg.value < _amount;\n    if (msg.sender == _seller) {\n      useDeposits = true;\n      require(deposits[_buyer] >= _amount);\n    }\n    else {\n      require(msg.sender == _buyer);\n      require(msg.value >= _amount || deposits[_buyer] >= _amount);\n    }\n\n    require(verifySignature(hashOrder(_buyer, _shares, _amount), _buyer_signature, _buyer));\n    require(verifySignature(hashOrder(_seller, _shares, _amount), _seller_signature, _seller));\n\n    _exchange(_buyer, _seller, _shares, _amount, useDeposits);\n  }\n\n  function exchange(\n    address _buyer,\n    address _seller,\n    uint _shares,\n    uint _amount,\n    uint _valid_until,\n    bytes _buyer_signature,\n    bytes _seller_signature\n  )\n    payable\n  {\n    require(_shares > 0);\n    require(_amount > 0);\n    require(now <= _valid_until);\n    require(balances[_seller] >= _shares);\n    require(!cancelledOrders[_buyer_signature]);\n    require(!cancelledOrders[_seller_signature]);\n\n    bool useDeposits = msg.value < _amount;\n    if (msg.sender == _seller) {\n      useDeposits = true;\n      require(deposits[_buyer] >= _amount);\n    }\n    else {\n      require(msg.sender == _buyer);\n      require(msg.value >= _amount || deposits[_buyer] >= _amount);\n    }\n\n    require(verifySignature(hashOrder(_buyer, _shares, _amount, _valid_until), _buyer_signature, _buyer));\n    require(verifySignature(hashOrder(_seller, _shares, _amount, _valid_until), _seller_signature, _seller));\n\n    _exchange(_buyer, _seller, _shares, _amount, useDeposits);\n  }\n\n  // 52k gas\n  // Allows the sender to cancel a previously posted order\n  function updateOrderCancellation(uint shares, uint amount, bytes sig, bool valid) {\n    bytes32 hash = hashOrder(msg.sender, shares, amount);\n    require(verifySignature(hash, sig, msg.sender));\n    cancelledOrders[sig] = valid;\n  }\n\n  function updateOrderCancellation(uint shares, uint amount, uint validUntil, bytes sig, bool valid) {\n    bytes32 hash = hashOrder(msg.sender, shares, amount, validUntil);\n    require(verifySignature(hash, sig, msg.sender));\n    cancelledOrders[sig] = valid;\n  }\n\n  // This updates the balance held\n  function deposit() payable {\n    deposits[msg.sender] = deposits[msg.sender].add(msg.value);\n  }\n\n  function withdraw(uint amount) payable hasSufficientDeposits(msg.sender, amount) {\n    // May need to implement some protections here\n    deposits[msg.sender] = deposits[msg.sender].sub(amount);\n    require(msg.sender.send(amount));\n  }\n\n  function getCancelStatus(bytes sig) constant returns (bool) {\n    return cancelledOrders[sig];\n  }\n\n  function hashOrder(address person, uint shares, uint amount) constant returns(bytes32) {\n    return sha3(person, shares, amount);\n  }\n\n  function hashBoundedOrder(address person, uint shares, uint amount) constant returns(bytes32) {\n    return sha3(person, shares, amount);\n  }\n\n  function hashOrder(address person, uint shares, uint amount, uint validUntil) constant returns(bytes32) {\n    return sha3(person, shares, amount, validUntil);\n  }\n\n  function _exchange(address buyer, address seller, uint shares, uint amount, bool useDeposits) internal {\n    balances[seller] = balances[seller].sub(shares);\n    balances[buyer] = balances[buyer].add(shares);\n\n    if (useDeposits) {\n      deposits[buyer] = deposits[buyer].sub(amount);\n    }\n    deposits[seller] = deposits[seller].add(amount);\n    uint change = useDeposits ? msg.value : (msg.value - amount);\n    deposits[msg.sender] = deposits[msg.sender].add(change);\n\n    trackTrade(Trade(buyer, seller, shares, amount));\n    Transfer(buyer, seller, shares);\n  }\n\n  function trackTrade(Trade _trade) internal {\n    uint price = pricePerShare(_trade);\n    uint maxPrice = price;\n    uint minPrice = price;\n    for (uint i = lastTrades.length - 1; i > 0; i--) {\n      lastTrades[i] = lastTrades[(i-1)];\n      if (lastTrades[i].shares > 0) {\n        price = pricePerShare(lastTrades[i]);\n        if (price > maxPrice) { maxPrice = price; }\n        else if (price < minPrice) { minPrice = price; }\n      }\n    }\n    lastTrades[0] = _trade;\n    if (this.balance < 1 szabo) { minPrice = this.balance; }\n    else { minPrice = sellPrice - 1 szabo; }\n    buyPrice = maxPrice + 1 szabo;\n    Transfer(_trade.seller, _trade.buyer, _trade.shares);\n  }\n\n  function pricePerShare(Trade trade) constant internal returns (uint) {\n    if (trade.shares <= 0) {\n      return 0;\n    }\n    else if (trade.amount <= 0) {\n      return 0;\n    }\n    return trade.amount / trade.shares;\n  }\n\n  function verifySignature(bytes32 hash, bytes sig, address signer) constant returns (bool) {\n    return recover(hash, sig) == signer;\n  }\n\n  // Stolen from Zeppelin ECRecovery\n  function recover(bytes32 hash, bytes sig) constant internal returns (address) {\n    bytes32 r;\n    bytes32 s;\n    uint8 v;\n\n    //Check the signature length\n    if (sig.length != 65) {\n      return (address(0));\n    }\n\n    // Divide the signature in r, s and v variables\n    assembly {\n      r := mload(add(sig, 32))\n      s := mload(add(sig, 64))\n      v := byte(0, mload(add(sig, 96)))\n    }\n\n    // Version of signature should be 27 or 28, but 0 and 1 are also possible versions\n    if (v < 27) {\n      v += 27;\n    }\n\n    // If the version is correct return the signer address\n    if (v != 27 && v != 28) {\n      return (address(0));\n    } else {\n      return ecrecover(hash, v, r, s);\n    }\n  }\n}\n",
  "sourcePath": "/Users/bradlarson/src/eth-token/contracts/MemeToken.sol",
  "schemaVersion": "1.0.0",
  "updatedAt": "2017-10-25T19:54:02.780Z"
}