{
  "contractName": "MetaMeme",
  "abi": [
    {
      "constant": false,
      "inputs": [
        {
          "name": "_spender",
          "type": "address"
        },
        {
          "name": "_value",
          "type": "uint256"
        }
      ],
      "name": "approve",
      "outputs": [
        {
          "name": "",
          "type": "bool"
        }
      ],
      "payable": false,
      "type": "function"
    },
    {
      "constant": true,
      "inputs": [],
      "name": "totalSupply",
      "outputs": [
        {
          "name": "",
          "type": "uint256"
        }
      ],
      "payable": false,
      "type": "function"
    },
    {
      "constant": false,
      "inputs": [
        {
          "name": "meme",
          "type": "string"
        }
      ],
      "name": "registerMeme",
      "outputs": [],
      "payable": false,
      "type": "function"
    },
    {
      "constant": false,
      "inputs": [
        {
          "name": "_from",
          "type": "address"
        },
        {
          "name": "_to",
          "type": "address"
        },
        {
          "name": "_value",
          "type": "uint256"
        }
      ],
      "name": "transferFrom",
      "outputs": [
        {
          "name": "",
          "type": "bool"
        }
      ],
      "payable": false,
      "type": "function"
    },
    {
      "constant": true,
      "inputs": [],
      "name": "INITIAL_SUPPLY",
      "outputs": [
        {
          "name": "",
          "type": "uint256"
        }
      ],
      "payable": false,
      "type": "function"
    },
    {
      "constant": true,
      "inputs": [
        {
          "name": "_owner",
          "type": "address"
        }
      ],
      "name": "balanceOf",
      "outputs": [
        {
          "name": "balance",
          "type": "uint256"
        }
      ],
      "payable": false,
      "type": "function"
    },
    {
      "constant": true,
      "inputs": [
        {
          "name": "memeName",
          "type": "string"
        }
      ],
      "name": "getMemeAddress",
      "outputs": [
        {
          "name": "",
          "type": "address"
        }
      ],
      "payable": false,
      "type": "function"
    },
    {
      "constant": false,
      "inputs": [
        {
          "name": "_to",
          "type": "address"
        },
        {
          "name": "_value",
          "type": "uint256"
        }
      ],
      "name": "transfer",
      "outputs": [
        {
          "name": "",
          "type": "bool"
        }
      ],
      "payable": false,
      "type": "function"
    },
    {
      "constant": true,
      "inputs": [
        {
          "name": "_owner",
          "type": "address"
        },
        {
          "name": "_spender",
          "type": "address"
        }
      ],
      "name": "allowance",
      "outputs": [
        {
          "name": "remaining",
          "type": "uint256"
        }
      ],
      "payable": false,
      "type": "function"
    },
    {
      "constant": true,
      "inputs": [
        {
          "name": "",
          "type": "bytes32"
        }
      ],
      "name": "memeTokens",
      "outputs": [
        {
          "name": "",
          "type": "address"
        }
      ],
      "payable": false,
      "type": "function"
    },
    {
      "inputs": [],
      "payable": false,
      "type": "constructor"
    },
    {
      "anonymous": false,
      "inputs": [
        {
          "indexed": true,
          "name": "owner",
          "type": "address"
        },
        {
          "indexed": true,
          "name": "spender",
          "type": "address"
        },
        {
          "indexed": false,
          "name": "value",
          "type": "uint256"
        }
      ],
      "name": "Approval",
      "type": "event"
    },
    {
      "anonymous": false,
      "inputs": [
        {
          "indexed": true,
          "name": "from",
          "type": "address"
        },
        {
          "indexed": true,
          "name": "to",
          "type": "address"
        },
        {
          "indexed": false,
          "name": "value",
          "type": "uint256"
        }
      ],
      "name": "Transfer",
      "type": "event"
    }
  ],
  "bytecode": "0x60606040526000600455341561001457600080fd5b5b6004546000555b5b612d758061002c6000396000f30060606040523615620000ac5763ffffffff7c0100000000000000000000000000000000000000000000000000000000600035041663095ea7b38114620000b157806318160ddd14620000ea5780631c02826f146200011257806323b872dd14620001685780632ff2e9dc14620001a757806370a0823114620001cf5780638e4980fc1462000203578063a9059cbb1462000273578063dd62ed3e14620002ac578063e88a4d4314620002e6575b600080fd5b3415620000bd57600080fd5b620000d6600160a060020a03600435166024356200031b565b604051901515815260200160405180910390f35b3415620000f657600080fd5b62000100620003c4565b60405190815260200160405180910390f35b34156200011e57600080fd5b6200016660046024813581810190830135806020601f82018190048102016040519081016040528181529291906020840183838082843750949650620003ca95505050505050565b005b34156200017457600080fd5b620000d6600160a060020a03600435811690602435166044356200051e565b604051901515815260200160405180910390f35b3415620001b357600080fd5b6200010062000639565b60405190815260200160405180910390f35b3415620001db57600080fd5b62000100600160a060020a03600435166200063f565b60405190815260200160405180910390f35b34156200020f57600080fd5b6200025760046024813581810190830135806020601f820181900481020160405190810160405281815292919060208401838380828437509496506200065e95505050505050565b604051600160a060020a03909116815260200160405180910390f35b34156200027f57600080fd5b620000d6600160a060020a0360043516602435620006e6565b604051901515815260200160405180910390f35b3415620002b857600080fd5b62000100600160a060020a0360043581169060243516620007aa565b60405190815260200160405180910390f35b3415620002f257600080fd5b62000257600435620007d7565b604051600160a060020a03909116815260200160405180910390f35b60008115806200034e5750600160a060020a03338116600090815260026020908152604080832093871683529290522054155b15156200035a57600080fd5b600160a060020a03338116600081815260026020908152604080832094881680845294909152908190208590557f8c5be1e5ebec7d5bd14f71427d1e84f3dd0314c0f7b2291e5b200ac8c7c3b9259085905190815260200160405180910390a35060015b92915050565b60005481565b6000816040518082805190602001908083835b60208310620003ff57805182525b601f199092019160209182019101620003dd565b6001836020036101000a0380198251168184511617909252505050919091019250604091505051908190039020600081815260036020526040902054909150600160a060020a031615156200051957816200045962000825565b60208082528190810183818151815260200191508051906020019080838360005b83811015620004955780820151818401525b6020016200047a565b50505050905090810190601f168015620004c35780820380516001836020036101000a031916815260200191505b5092505050604051809103906000f0801515620004df57600080fd5b6000828152600360205260409020805473ffffffffffffffffffffffffffffffffffffffff1916600160a060020a03929092169190911790555b5b5050565b600160a060020a03808416600090815260026020908152604080832033851684528252808320549386168352600190915281205490919062000567908463ffffffff620007f216565b600160a060020a0380861660009081526001602052604080822093909355908716815220546200059e908463ffffffff6200080d16565b600160a060020a038616600090815260016020526040902055620005c9818463ffffffff6200080d16565b600160a060020a03808716600081815260026020908152604080832033861684529091529081902093909355908616917fddf252ad1be2c89b69c2b068fc378daa952ba7f163c4a11628f55a4df523b3ef9086905190815260200160405180910390a3600191505b509392505050565b60045481565b600160a060020a0381166000908152600160205260409020545b919050565b600060036000836040518082805190602001908083835b602083106200069757805182525b601f19909201916020918201910162000675565b6001836020036101000a03801982511681845116179092525050509190910192506040915050519081900390208152602081019190915260400160002054600160a060020a031690505b919050565b600160a060020a03331660009081526001602052604081205462000711908363ffffffff6200080d16565b600160a060020a03338116600090815260016020526040808220939093559085168152205462000748908363ffffffff620007f216565b600160a060020a0380851660008181526001602052604090819020939093559133909116907fddf252ad1be2c89b69c2b068fc378daa952ba7f163c4a11628f55a4df523b3ef9085905190815260200160405180910390a35060015b92915050565b600160a060020a038083166000908152600260209081526040808320938516835292905220545b92915050565b600360205260009081526040902054600160a060020a031681565b6000828201838110156200080257fe5b8091505b5092915050565b6000828211156200081a57fe5b508082035b92915050565b6040516125138062000837833901905600606060409081526003805460a060020a60ff02191690558051908101604052600981527f4d656d65546f6b656e0000000000000000000000000000000000000000000000602082015260049080516200005d92916020019062000452565b5060408051908101604052600381527f484548000000000000000000000000000000000000000000000000000000000060208201526005908051620000a792916020019062000452565b506000600655600560075566038d7ea4c6800060085566038d7ea4c68000600955600954600a553415620000da57600080fd5b60405162002513380380620025138339810160405280805190910190505b5b60038054600160a060020a03191633600160a060020a03161790555b60048180516200012a92916020019062000452565b506007546000818155600160a060020a033316815260016020526040908190209190915562000198906080905190810160409081526000825233600160a060020a0316602083015260075490820181905260085402606082015264010000000062001c43620001a082021704565b5b50620004fc565b6000808080620001be8564010000000062001f756200040782021704565b9350839250829150601890505b60008111156200030457600b600019820160198110620001e757fe5b6004020160005b50600b8260198110620001fd57fe5b6004020160005b5081548154600160a060020a03918216600160a060020a03199182161783556001808501549084018054919093169116179055600280830154908201556003918201549101556000600b82601981106200025a57fe5b6004020160005b50600201541115620002f757620002d6600b82601981106200027f57fe5b6004020160005b50608060405190810160409081528254600160a060020a0390811683526001840154166020830152600283015490820152600390910154606082015264010000000062001f756200040782021704565b935082841115620002ea57839250620002f7565b81841015620002f7578391505b5b5b5b60001901620001cb565b84600b60005b6004020160005b5081518154600160a060020a031916600160a060020a03919091161781556020820151600182018054600160a060020a031916600160a060020a03929092169190911790556040820151816002015560608201516003909101555064e8d4a51000600160a060020a033016311015620003975730600160a060020a0316319150620003a4565b64e8d4a51000600a540391505b64e8d4a5100083016009556020850151600160a060020a03168551600160a060020a03167fddf252ad1be2c89b69c2b068fc378daa952ba7f163c4a11628f55a4df523b3ef876040015160405190815260200160405180910390a35b5050505050565b6000808260400151116200041e575060006200044d565b600082606001511162000434575060006200044d565b5b816040015182606001518115156200044957fe5b0490505b919050565b828054600181600116156101000203166002900490600052602060002090601f016020900481019282601f106200049557805160ff1916838001178555620004c5565b82800160010185558215620004c5579182015b82811115620004c5578251825591602001919060010190620004a8565b5b50620004d4929150620004d8565b5090565b620004f991905b80821115620004d45760008155600101620004df565b5090565b90565b612007806200050c6000396000f300606060405236156101935763ffffffff7c010000000000000000000000000000000000000000000000000000000060003504166305d2035b811461019857806306fdde03146101bf578063095ea7b31461024a578063142b00811461028057806318160ddd1461032d57806323b872dd146103525780632e1a7d4d1461038e5780632ff2e9dc1461039b578063313ce567146103c057806340c10f19146103e557806342966c681461041b5780634b029028146104335780634b7503341461046d5780634f37be351461049257806352d3642d146104f757806370a08231146105015780637d0a11f3146105325780637d64bcb4146105dc5780638620410b146106035780638da5cb5b1461062857806395d89b41146106575780639e7ea1b6146106e2578063a9059cbb1461072d578063a99b929c14610763578063b43a232e1461076d578063be192b62146107a4578063d0e30db014610809578063d12f702914610813578063dd62ed3e14610838578063f2fde38b1461086f578063f691e4d014610890578063fc7e286d146108f2575b600080fd5b34156101a357600080fd5b6101ab610923565b604051901515815260200160405180910390f35b34156101ca57600080fd5b6101d2610944565b60405160208082528190810183818151815260200191508051906020019080838360005b8381101561020f5780820151818401525b6020016101f6565b50505050905090810190601f16801561023c5780820380516001836020036101000a031916815260200191505b509250505060405180910390f35b341561025557600080fd5b6101ab600160a060020a03600435166024356109e2565b604051901515815260200160405180910390f35b61032b600160a060020a0360048035821691602480359091169160443591606435916084359160c49060a43590810190830135806020601f8201819004810201604051908101604052818152929190602084018383808284378201915050505050509190803590602001908201803590602001908080601f016020809104026020016040519081016040528181529291906020840183838082843750949650610a8995505050505050565b005b341561033857600080fd5b610340610cbc565b60405190815260200160405180910390f35b341561035d57600080fd5b6101ab600160a060020a0360043581169060243516604435610cc2565b604051901515815260200160405180910390f35b61032b600435610dc5565b005b34156103a657600080fd5b610340610e64565b60405190815260200160405180910390f35b34156103cb57600080fd5b610340610e6a565b60405190815260200160405180910390f35b34156103f057600080fd5b6101ab600160a060020a0360043516602435610e70565b604051901515815260200160405180910390f35b341561042657600080fd5b61032b600435610f52565b005b341561043e57600080fd5b610340600160a060020a0360043516602435604435606435610ff1565b60405190815260200160405180910390f35b341561047857600080fd5b61034061103f565b60405190815260200160405180910390f35b341561049d57600080fd5b6101ab60046024813581810190830135806020601f8201819004810201604051908101604052818152929190602084018383808284375094965061104595505050505050565b604051901515815260200160405180910390f35b61032b6110ba565b005b341561050c57600080fd5b610340600160a060020a0360043516611205565b60405190815260200160405180910390f35b61032b600160a060020a0360048035821691602480359091169160443591606435919060a49060843590810190830135806020601f8201819004810201604051908101604052818152929190602084018383808284378201915050505050509190803590602001908201803590602001908080601f01602080910402602001604051908101604052818152929190602084018383808284375094965061122495505050505050565b005b34156105e757600080fd5b6101ab611448565b604051901515815260200160405180910390f35b341561060e57600080fd5b6103406114cf565b60405190815260200160405180910390f35b341561063357600080fd5b61063b6114d5565b604051600160a060020a03909116815260200160405180910390f35b341561066257600080fd5b6101d26114e4565b60405160208082528190810183818151815260200191508051906020019080838360005b8381101561020f5780820151818401525b6020016101f6565b50505050905090810190601f16801561023c5780820380516001836020036101000a031916815260200191505b509250505060405180910390f35b34156106ed57600080fd5b6106f8600435611582565b604051600160a060020a0394851681529290931660208301526040808301919091526060820192909252608001905180910390f35b341561073857600080fd5b6101ab600160a060020a03600435166024356115bd565b604051901515815260200160405180910390f35b61032b61166b565b005b341561077857600080fd5b610340600160a060020a03600435166024356044356117a0565b60405190815260200160405180910390f35b34156107af57600080fd5b61032b600480359060248035916044359160849060643590810190830135806020601f820181900481020160405190810160405281815292919060208401838380828437509496505050509135151591506117e79050565b005b61032b61188d565b005b341561081e57600080fd5b6103406118d2565b60405190815260200160405180910390f35b341561084357600080fd5b610340600160a060020a03600435811690602435166118d8565b60405190815260200160405180910390f35b341561087a57600080fd5b61032b600160a060020a0360043516611905565b005b341561089b57600080fd5b61032b600480359060248035919060649060443590810190830135806020601f8201819004810201604051908101604052818152929190602084018383808284375094965050505091351515915061195d9050565b005b34156108fd57600080fd5b610340600160a060020a0360043516611a01565b60405190815260200160405180910390f35b60035474010000000000000000000000000000000000000000900460ff1681565b60048054600181600116156101000203166002900480601f0160208091040260200160405190810160405280929190818152602001828054600181600116156101000203166002900480156109da5780601f106109af576101008083540402835291602001916109da565b820191906000526020600020905b8154815290600101906020018083116109bd57829003601f168201915b505050505081565b6000811580610a145750600160a060020a03338116600090815260026020908152604080832093871683529290522054155b1515610a1f57600080fd5b600160a060020a03338116600081815260026020908152604080832094881680845294909152908190208590557f8c5be1e5ebec7d5bd14f71427d1e84f3dd0314c0f7b2291e5b200ac8c7c3b9259085905190815260200160405180910390a35060015b92915050565b6000808611610a9757600080fd5b60008511610aa457600080fd5b4284901115610ab257600080fd5b600160a060020a03871660009081526001602052604090205486901015610ad857600080fd5b6070836040518082805190602001908083835b60208310610b0b57805182525b601f199092019160209182019101610aeb565b6001836020036101000a0380198251168184511680821785525050505050509050019150509081526020016040519081900390205460ff1615610b4d57600080fd5b6070826040518082805190602001908083835b60208310610b8057805182525b601f199092019160209182019101610b60565b6001836020036101000a0380198251168184511680821785525050505050509050019150509081526020016040519081900390205460ff1615610bc257600080fd5b843410905086600160a060020a031633600160a060020a03161415610c105750600160a060020a0387166000908152606f602052604090205460019085901015610c0b57600080fd5b610c63565b87600160a060020a031633600160a060020a0316141515610c3057600080fd5b8434101580610c585750600160a060020a0388166000908152606f6020526040902054859010155b1515610c6357600080fd5b5b610c79610c728988886117a0565b848a611a13565b1515610c8457600080fd5b610c99610c928888886117a0565b8389611a13565b1515610ca457600080fd5b610cb18888888885611a3d565b5b5050505050505050565b60005481565b600160a060020a038084166000908152600260209081526040808320338516845282528083205493861683526001909152812054909190610d09908463ffffffff611c1216565b600160a060020a038086166000908152600160205260408082209390935590871681522054610d3e908463ffffffff611c2c16565b600160a060020a038616600090815260016020526040902055610d67818463ffffffff611c2c16565b600160a060020a0380871660008181526002602090815260408083203386168452909152908190209390935590861691600080516020611fbc8339815191529086905190815260200160405180910390a3600191505b509392505050565b33600160a060020a0381166000908152606f6020526040902054829081901015610dee57600080fd5b600160a060020a0333166000908152606f6020526040902054610e17908463ffffffff611c2c16565b600160a060020a0333166000818152606f602052604090819020929092559084156108fc0290859051600060405180830381858888f193505050501515610e5d57600080fd5b5b5b505050565b60075481565b60065481565b60035460009033600160a060020a03908116911614610e8e57600080fd5b60035474010000000000000000000000000000000000000000900460ff1615610eb657600080fd5b600054610ec9908363ffffffff611c1216565b6000908155600160a060020a038416815260016020526040902054610ef4908363ffffffff611c1216565b600160a060020a0384166000818152600160205260409081902092909255907f0f6798a560793a54c3bcfe86a93cde1e73087d944c0ea20544137d41213968859084905190815260200160405180910390a25060015b5b5b92915050565b6000808211610f6057600080fd5b5033600160a060020a038116600090815260016020526040902054610f859083611c2c565b600160a060020a03821660009081526001602052604081209190915554610fb2908363ffffffff611c2c16565b60005581600160a060020a0382167fcc16f5dbb4873280815c1ee09dbd06736cffcc184412cf7a71a0fdb75d397ca560405160405180910390a35b5050565b600084848484604051600160a060020a03949094166c01000000000000000000000000028452601484019290925260348301526054820152607401604051809103902090505b949350505050565b600a5481565b60006070826040518082805190602001908083835b6020831061107a57805182525b601f19909201916020918201910161105a565b6001836020036101000a0380198251168184511680821785525050505050509050019150509081526020016040519081900390205460ff1690505b919050565b33600160a060020a038116600090815260016020819052604090912054819010156110e457600080fd5b600a54600160a060020a0330163110156110fd57600080fd5b60005461111190600163ffffffff611c2c16565b6000908155600160a060020a03331681526001602081905260409091205461113e9163ffffffff611c2c16565b600160a060020a033316600090815260016020526040908190209190915561119290608090519081016040908152600160a060020a033316825260006020830152600190820152600a546060820152611c43565b600133600160a060020a03167fcc16f5dbb4873280815c1ee09dbd06736cffcc184412cf7a71a0fdb75d397ca560405160405180910390a333600160a060020a03166108fc600a549081150290604051600060405180830381858888f193505050501515610fed57600080fd5b5b5b5050565b600160a060020a0381166000908152600160205260409020545b919050565b600080851161123257600080fd5b6000841161123f57600080fd5b600160a060020a0386166000908152600160205260409020548590101561126557600080fd5b6070836040518082805190602001908083835b6020831061129857805182525b601f199092019160209182019101611278565b6001836020036101000a0380198251168184511680821785525050505050509050019150509081526020016040519081900390205460ff16156112da57600080fd5b6070826040518082805190602001908083835b6020831061130d57805182525b601f1990920191602091820191016112ed565b6001836020036101000a0380198251168184511680821785525050505050509050019150509081526020016040519081900390205460ff161561134f57600080fd5b833410905085600160a060020a031633600160a060020a0316141561139d5750600160a060020a0386166000908152606f60205260409020546001908490101561139857600080fd5b6113f0565b86600160a060020a031633600160a060020a03161415156113bd57600080fd5b83341015806113e55750600160a060020a0387166000908152606f6020526040902054849010155b15156113f057600080fd5b5b6114066113ff8887876117a0565b8489611a13565b151561141157600080fd5b61142661141f8787876117a0565b8388611a13565b151561143157600080fd5b61143e8787878785611a3d565b5b50505050505050565b60035460009033600160a060020a0390811691161461146657600080fd5b6003805474ff00000000000000000000000000000000000000001916740100000000000000000000000000000000000000001790557fae5184fba832cb2b1f702aca6117b8d265eaf03ad33eb133f19dde0f5920fa0860405160405180910390a15060015b5b90565b60095481565b600354600160a060020a031681565b60058054600181600116156101000203166002900480601f0160208091040260200160405190810160405280929190818152602001828054600181600116156101000203166002900480156109da5780601f106109af576101008083540402835291602001916109da565b820191906000526020600020905b8154815290600101906020018083116109bd57829003601f168201915b505050505081565b600b816019811061158f57fe5b6004020160005b50805460018201546002830154600390930154600160a060020a0392831694509116919084565b600160a060020a0333166000908152600160205260408120546115e6908363ffffffff611c2c16565b600160a060020a03338116600090815260016020526040808220939093559085168152205461161b908363ffffffff611c1216565b600160a060020a038085166000818152600160205260409081902093909355913390911690600080516020611fbc8339815191529085905190815260200160405180910390a35060015b92915050565b60008060095480341015151561168057600080fd5b600954925082340391506116a06001600054611c1290919063ffffffff16565b6000908155600160a060020a0333168152600160208190526040909120546116cd9163ffffffff611c1216565b600160a060020a0333166000908152600160205260409081902091909155611720906080905190810160409081526000825233600160a060020a0316602083015260019082015260608101859052611c43565b33600160a060020a03167f0f6798a560793a54c3bcfe86a93cde1e73087d944c0ea20544137d4121396885600160405190815260200160405180910390a26000821115610e5d57600160a060020a03331682156108fc0283604051600060405180830381858888f193505050501515610e5d57600080fd5b5b5b5b505050565b6000838383604051600160a060020a03939093166c0100000000000000000000000002835260148301919091526034820152605401604051809103902090505b9392505050565b60006117f533878787610ff1565b9050611802818433611a13565b151561180d57600080fd5b816070846040518082805190602001908083835b6020831061184157805182525b601f199092019160209182019101611821565b6001836020036101000a038019825116818451168082178552505050505050905001915050908152602001604051908190039020805460ff19169115159190911790555b505050505050565b600160a060020a0333166000908152606f60205260409020546118b6903463ffffffff611c1216565b600160a060020a0333166000908152606f60205260409020555b565b60085481565b600160a060020a038083166000908152600260209081526040808320938516835292905220545b92915050565b60035433600160a060020a0390811691161461192057600080fd5b600160a060020a03811615611958576003805473ffffffffffffffffffffffffffffffffffffffff1916600160a060020a0383161790555b5b5b50565b600061196a3386866117a0565b9050611977818433611a13565b151561198257600080fd5b816070846040518082805190602001908083835b602083106119b657805182525b601f199092019160209182019101611996565b6001836020036101000a038019825116818451168082178552505050505050905001915050908152602001604051908190039020805460ff19169115159190911790555b5050505050565b606f6020526000908152604090205481565b600081600160a060020a0316611a298585611e94565b600160a060020a03161490505b9392505050565b600160a060020a038416600090815260016020526040812054611a66908563ffffffff611c2c16565b600160a060020a038087166000908152600160205260408082209390935590881681522054611a9b908563ffffffff611c1216565b600160a060020a0387166000908152600160205260409020558115611afd57600160a060020a0386166000908152606f6020526040902054611ae3908463ffffffff611c2c16565b600160a060020a0387166000908152606f60205260409020555b600160a060020a0385166000908152606f6020526040902054611b26908463ffffffff611c1216565b600160a060020a0386166000908152606f602052604090205581611b4c57823403611b4e565b345b600160a060020a0333166000908152606f6020526040902054909150611b7a908263ffffffff611c1216565b600160a060020a0333166000908152606f60205260409081902091909155611bd490608090519081016040528088600160a060020a0316815260200187600160a060020a0316815260200186815260200185815250611c43565b84600160a060020a031686600160a060020a0316600080516020611fbc8339815191528660405190815260200160405180910390a35b505050505050565b600082820183811015611c2157fe5b8091505b5092915050565b600082821115611c3857fe5b508082035b92915050565b600080600080611c5285611f75565b9350839250829150601890505b6000811115611d8b57600b600019820160198110611c7957fe5b6004020160005b50600b8260198110611c8e57fe5b6004020160005b5081548154600160a060020a0391821673ffffffffffffffffffffffffffffffffffffffff199182161783556001808501549084018054919093169116179055600280830154908201556003918201549101556000600b8260198110611cf757fe5b6004020160005b50600201541115611d7f57611d61600b8260198110611d1957fe5b6004020160005b50608060405190810160409081528254600160a060020a03908116835260018401541660208301526002830154908201526003909101546060820152611f75565b935082841115611d7357839250611d7f565b81841015611d7f578391505b5b5b5b60001901611c5f565b84600b60005b6004020160005b508151815473ffffffffffffffffffffffffffffffffffffffff1916600160a060020a0391909116178155602082015160018201805473ffffffffffffffffffffffffffffffffffffffff1916600160a060020a03929092169190911790556040820151816002015560608201516003909101555064e8d4a51000600160a060020a033016311015611e365730600160a060020a0316319150611e43565b64e8d4a51000600a540391505b64e8d4a5100083016009556020850151600160a060020a03168551600160a060020a0316600080516020611fbc833981519152876040015160405190815260200160405180910390a35b5050505050565b6000806000808451604114611eac5760009350611f6b565b6020850151925060408501519150606085015160001a9050601b8160ff161015611ed457601b015b8060ff16601b14158015611eec57508060ff16601c14155b15611efa5760009350611f6b565b6001868285856040516000815260200160405260006040516020015260405193845260ff90921660208085019190915260408085019290925260608401929092526080909201915160208103908084039060008661646e5a03f11515611f5f57600080fd5b50506020604051035193505b5b50505092915050565b600080826040015111611f8a575060006110b5565b6000826060015111611f9e575060006110b5565b5b81604001518260600151811515611fb257fe5b0490505b9190505600ddf252ad1be2c89b69c2b068fc378daa952ba7f163c4a11628f55a4df523b3efa165627a7a7230582093888af62d337cf888ea1cb8bcc4937d30bc49d02aaac72368bea10cde8d61c70029a165627a7a72305820baab2f1585796943ee2d63ef0beb07ff2e1e82f629a7df482c4b54eeacf873060029",
  "source": "pragma solidity ^0.4.4;\n\nimport 'zeppelin-solidity/contracts/token/StandardToken.sol';\nimport './MemeToken.sol';\n\ncontract MetaMeme is StandardToken {\n  mapping (bytes32 => address) public memeTokens;\n  uint public INITIAL_SUPPLY = 0;\n\n  function MetaMeme() {\n    totalSupply = INITIAL_SUPPLY;\n  }\n\n  function registerMeme(string meme) {\n    bytes32 memeSha = sha3(meme);\n    if (memeTokens[memeSha] == 0x0) {\n      memeTokens[memeSha] = new MemeToken(meme);\n    }\n  }\n\n  function getMemeAddress(string memeName) constant returns(address) {\n    return memeTokens[sha3(memeName)];\n  }\n}\n",
  "sourcePath": "/Users/bradlarson/src/eth-token/contracts/MetaMeme.sol",
  "schemaVersion": "1.0.0",
  "updatedAt": "2017-09-26T20:12:33.455Z"
}